:1000000010C01FC01EC01DC01CC01BC01AC019C01C
:1000100018C017C016C015C014C013C012C011C03C
:1000200010C011241FBECFE5D1E0DEBFCDBF10E070
:10003000A0E6B0E001C01D92A436B107E1F7A2D05E
:10004000F0C0DECFD998DB98D89ADA9A1092630084
:100050000FC0D89ADA9A92E49A95F1F700C0D8982E
:10006000DA9895E09A95F1F700008F5F809363002E
:1000700080916300833268F30895D998DA98D89A0A
:10008000DB9A109263000FC0D89ADB9A92E49A959B
:10009000F1F700C0D898DB9895E09A95F1F7000049
:1000A0008F5F8093630080916300833268F30895CB
:1000B000D898DB98D99ADA9A109263000FC0D99A2F
:1000C000DA9A92E49A95F1F700C0D998DA9895E017
:1000D0009A95F1F700008F5F809363008091630031
:1000E000833268F30895D898DA98D99ADB9A1092F7
:1000F00063000FC0D99ADB9A92E49A95F1F700C099
:10010000D998DB9895E09A95F1F700008F5F80937E
:10011000630080916300833268F3089580916100E9
:1001200090916200019764E070E054D08370907009
:100130009093620080936100089580916100909196
:100140006200019664E070E045D090936200809375
:10015000610008958130910579F0823091051CF499
:10016000009741F008958230910541F08330910568
:1001700041F406C082DF0895B6DF089599DF08953F
:1001800061DF089580E886BD16BCD898D09AD998CA
:10019000D19ADA98D29ADB98D39AC09AC19AB89831
:1001A000B99886B390E0827090702091600030E042
:1001B0008217930749F086B3827080936000B09BEA
:1001C00002C0BBDF01C0AADF809161009091620094
:1001D000C1DFE7CF97FB092E07260AD077FD04D0B1
:1001E0000CD006D000201AF4709561957F4F0895C9
:1001F000F6F7909581959F4F0895AA1BBB1B51E17F
:1002000007C0AA1FBB1FA617B70710F0A61BB70B86
:10021000881F991F5A95A9F780959095BC01CD012B
:060220000895F894FFCFE1
:00000001FF
